:400000000010002011000000090200000902000010B500F0ADF900F0FFF80000F7B572B680220021D2003F4801F077F880220021D2003D4801F071F80022FF2511003B4E83
:400040000C363A4BD0584B000700284009184800013001333018AF43F31801900198834207D0581E0078C0190400187802332070F4E704320C2AE4D1C0222D4B92041A6078
:40008000EE222C4B12021A6099222B4B80211A6099232A4A1B041360294A890511600621284A294C1360294A182013780B4313704022274B2B311A60C022264B52031A6057
:4000C000D822254B12011A600223244A1360244A1160244A136080222368D2021343236000F08CFD2268204B204913402360204A204B1A601022204B1A60204B20321A601F
:4001000080221F4B12061A6000231E4A236011601D491E4A11601E491E4A11601E4A1360F7BDC04600300F4000400F4038110000040001400C0001401000014010500F40A5
:4001400018500F4030500F4000010B4000700F40000104400801044008030440000404400804044018040440FFFFFBFF1F0000800600008004010B400802024020020240F8
:4001800008010B40000002403F010080400002402B0100C0800002400C020B4010B5064C2378002B07D1054B002B02D0044800E000BF0123237010BD50010020000000007E
:4001C00034110000084B10B5002B03D00749084800E000BF07480368002B00D110BD064B002BFBD09847F9E7000000005401002034110000C80000200000000010B500F085
:40020000ABFB00F0E3FAFEE710B500F051FF03680C2B00D1FEE7FEE7F8B500250F49104B01394A1C14D000221F685C689E68A018B24203D0B858A0500432F8E70200DE68CC
:40024000141AA64201D020C2FAE710330139E8E700F034FFFFF7D2FFFEE7C04601000000B4110000002370B50C480D4C0D4D9A002100032B00D8A95801338150302BF6D1B5
:40028000FFF7CCFE084B1A68002A00D11A6080220121D20513680B43136070BD000000200902000000000000C0000020004700234118002A05D0013A881800781B18DBB250
:4002C000F7E7180070470000013810B50B2830D8C901494200F0D8FE06080A0C0E10141216191B20164B13E0164B16E0164B0AE0164B12E0164B0BE0164B09E0164B02E009
:40030000164B00E0164BC91814E0164B05E0164BC9180878C0B211E0144BC9180A7848788C780002230418430300C8781343000603E000210B7848780002184310BDC046BB
:40034000C07F0000C17F0000C57F0000C97F0000D07F0000D17F0000D67F0000D27F0000D47F0000D87F0000DC7F0000E07F00000C4B10B51A68102313400B4A00D113600C
:400380001368802B0DD10024022021001460FFF79BFFA04205D021000220FFF795FFFFF785FF10BD00030B40C0000020F8B5010006000320FFF788FF040031000420FFF732
:4003C00083FF0134E4012718002431000320FFF77BFF25000130C001B84209D203785A1ED2B2FD2A00D80125E418E4B20130F3E731000120FFF768FF6442E4B2062384423B
:4004000003D16A4255416D422B401800F8BD0000F0B5C04CA544019000F00CFA62B6019B002B02D06B461B7901E0BB4B1B78DBB2039300250A23009502939621039B04AA8C
:4004400049000AA800F0FEF9019B002B03D0029B013BDBB20293029B002B02D00028ECD102E0002800D08BE004AB1988062900D84BE11A7E0423012A52D104AA568BF21D13
:400480008A4200D943E1962149008A4200D93EE10AAA92199279172A42D10022F3189BB2002B09D0A0A99D48C91809180978013B521892B29BB2F3E70AAFBB1959795242BE
:4004C0001B79090292B219430823914228D162E0342B00D0CAE0009B012B00D015E1032E00D012E18022002155A800F016FE80251F2155AB581904AB7519F21EC918ADB283
:4005000000F002FE832D00D0F9E004AB9D7F587F2D020543FF2D00D810E1012300930933002404AA548001210AAA5370230AD370002311709470221D92B2002A09D0A0A94B
:400540007648891809180978013A5B189BB292B2F3E7A0AA724912195B4251189BB20B7070491B0A51180B706F4B0734D2181723137004AAA1B27F3302320AA800F094F9EF
:40058000019B002B00D158E7009B012B00D016E10123009351E77B783C79180031380A282ED9624A1468002C26D0009A012A25D104AAD68007AE13710BAF0C22002130000A
:4005C000069700F0AAFDB760310005A8A0472623B488FF339C4202D9B368BB4207D0B268002A01D1002C04D13368DBB299E70E2396E70E23140094E7052392E705238FE720
:4006000000F04CFD0B001900CFFF66FF3A00CFFF3E00500066FF60007000009B012B74D1002E72D13000FFF7C1FE43424341009C3B71330075E7009B012B66D1012E64D1BB
:40064000002C62D13A4B1B681B68DA0BD2B2DB09DBB2002A01D080235B003B711B0A7B71FF23BB7100230424FB715AE7009B012B4BD1022E49D93BE7009B012B45D198E00E
:40068000009B012B41D12C337419FF339C423EDC55AB581932000BA900F036FD0023A5B21C003EE7002E30D107AB1900214A350011CA11C10BAA03CB03C2012308240093A4
:4006C00033002EE7009B012B1FD1032E1DD104AA04AB977F5B7F3F021F430A23FF2F00D91EE748E00020FFF761FE002802D18022114B1A6000F0A2F800F054FA05E00123D2
:400700000025009302332C000BE7042308E7032306E7C0467CFDFFFF54110000A7FDFFFFACFDFFFFADFDFFFFAEFDFFFF6C010020CC00002058110000C0000020224B1B6857
:400740001A68D3099BB2520601D001339BB220022D18A8B2834204D90123002500930933D1E755A900F006F90028F5D10123050000930300C7E72102C919C9018022002018
:40078000FFF795FD0600002C0DD1FF2F0BD121000520FFF799FD2100361A0620FFF794FDF6B2361AF6B20AAB76421E7101240023B7E60025019BAB4200D0E9E63DE6A123F2
:4007C0009B009D44F0BDC046CC00002070B50020FFF7ECFD431E98410625144C4042236805401A68C021C03A0020FFF760FD63681B78181AC0B2834203D123681B68002BFF
:4008000002D1002000F0CCF9094C2368402B01D0002D03D000202060FFF7FAFDC820FFF7F7FD8023236000F0BDF970BDCC000020C000002010B500F095FA10BD10B500F00A
:400840009FFA10BDF8B504000F0016000120002C29D0002927D00A255D4300F0BFFA002811D000F0BBFA05005C20FF3000F0BCF900F0B4FA8542F4D13900AF4200D9290005
:400880003180651807E00120013D00F097F9002DE3D1102007E0AC4204D000F087FA20700134F8E70020F8BD70B501230C001500002805D0002903D000F0D4FA00232C80B0
:4008C000180070BD802200210C4BD2041A601A681A600B4A11601A681A600C22094B1A60094B0B3A1A60094B30321A60084BCD321A60084B7F3A1A607047C04600010540F7
:4009000008010540240105403801054028010540140105400C01054070B50D000400AC4000F008FA024B1C6000F008FA70BDC0460800054010B5012400F0FCF9054A13687F
:400940002343136000F0FAF918212000FFF7E4FF10BDC0460000054010B5054C2378002B03D1FFF7AFFF01232370FFF7E3FF10BD70010020F0B50024ADB00894039009943E
:40098000FF2800D9ABE0A14200D1A8E080220CA800F0BAFB02222300210001940AAD90004059002802D00918034301920132222AF5D1002902D1002B00D093E00027029735
:4009C0007F234D494D4C4E4E4E4A0A916B6025603260C046236806911B0F07920F2B04D022680023120F0A2A01D02368DBB20893089B0493002B00D07BE000F09BF9424A56
:400A0000424B116805901960049B04920993089B002B16D13E4A03990A920A9A09040A433C490A922560354A3160C0462168090F0F2903D01168090F0A2901D01368DBB259
:400A40000893089D002D39D1002F37D0802229000CA800F062FB019B029A0AAF9B00DA51069B079A0A937F237B602760234B3260C0462268120F0F2A03D01A68120F0A2ACF
:400A800001D01D68EDB20895089B002B16D1224A03990A920A9A09040A4320490A922760164A3160C0462168090F0F2903D01168090F0A2901D01368DBB20893099B002B17
:400AC00009D1124A049912680A600993099B002B01D0099B0893059800F030F909E00423089306E0019B01279B00EA58E950029266E708982DB0F0BDB6D7000008000040C3
:400B0000040000400400008008010B4074010020B6D8000005000080B6D9000006000080024B8000C31818681960704740000020F8B5032605003540B5400F000400063591
:400B4000AE40AF4000F0F6F8A408054BA400E4182368B3431F43276000F0F0F8F8BDC04600E400E01F2318401E3B8340014A13607047C04600E100E01F2318401E3B8340B5
:400B8000014A13607047C04680E100E01F2318401E3B8340014A13607047C04680E200E001BE7047034A044913689BB20B4313607047C0460CED00E00400FA0570B580250A
:400BC00004002D02064BAC4205D9586800F0A8F8044BE418F6E79868604300F0A1F870BDD40000200080FFFF10B5034B1B7B584300F096F810BDC046D4000020F0B505002F
:400C000087B000F097F8EB1E049003932D2B5BD8304B1B789D4204D82F4B1C782F4BE4B21EE02F4B1B789D4204D82E4B1C782E4BE4B215E02D4B1B789D4204D82C4B1C78B1
:400C40002C4BE4B20CE02C4B1B789D4204D82B4B1C782B4BE4B203E02A4B1C782A4BE4B21B78EA1EDBB20193284B294F9A5C059302922F2A04D92A2D02D919263E6008E0B3
:400C80003F233E681E40029BB34205D2204B029A1A60052000F044F81B4B1E4AED182B780520DBB213601C4B019A1C601B4B1A60FFF79AFF029BB34206D9059B039A052038
:400CC0009B5C3B6000F02CF8049800F037F807B0F0BDC046C0F1FF0FC1F1FF0FC2F1FF0FC3F1FF0FC4F1FF0FC5F1FF0FC6F1FF0FC7F1FF0FC8F1FF0FC9F1FF0FCAF1FF0FBD
:400D0000CBF1FF0FCCF1FF0FCDF1FF0F601100002CFF0B4028FF0B401CFF0B4020FF0B400230800804D0C0460138FDD1C046C046C0467047EFF3108072B6704780F3108869
:400D40007047C0468021064A10B5136809060B4313600A20FFF706FF00F002F910BDC0460000064010B5054C2378002B03D100F085F801232370FFF7E5FF10BD7801002078
:400D800010B50A20FFF7F8FE00F0FCF8054A0A2013685B005B0813600022034B1A60FFF7F5FE10BD00000640880F0640084B094A196813680020994208D013680133412BFC
:400DC00000D103000449C85C1360C0B27047C046140200208C010020D0010020044B1868044B1A681B68904200D24130C01A7047140200208C010020134B144A30B515686E
:400E00001C681900A54208D1114B1C680F232340082B02D00F4B186015E013680133402B00D100230C68A342FCD002210A4CC0B221600A4CE0541360094B1A680A4202D183
:400E40001A680A431A6030BD84010020880100200802064040020640800F064090010020880F064070B504004518AC4204D02078FFF7C2FF0134F8E770BD000010B50024F2
:400E800007211E4A1E4B0A201A601E4B1E4A1C601E4B1A601E4B1F4A13601F4A11601F4A063914601E4A11601E4A13601E4B1C60FFF762FE03210A20FFF73AFE1B490A2031
:400EC000FFF72EFE04221A4B1C601A4B1C601A4B1C601A4B1C601A4B1A601A4B1C601A68194B1A80194B1C60194B1C60194B1C70194B1C60194B1C6010BDC0460C00000295
:400F0000000006404000064001000A004800064007000080000306400403064010030640440006400002064004020640AD0F0000880E0640C80E0640480F0640080F06400A
:400F4000C80F0640880F064080010020140200208C010020110200208801002084010020F021054A13688B4360390B431360034B1A88034B1A60704710000140800100200E
:400F8000880F0640F021064A13688B431360054B1A68E423DB001340034A13807047C04610000140880F064080010020254B70B51B68002B00D09847234B1B685B071CD58E
:400FC00020240F2021490B680133412B00D100231F4A15681F4AAB4203D113681E4B1C7004E012681D4DD2B2EA540B601C4B1B680342E8D104221B4B1A601B4B1B689B071F
:401000001FD50F20194C1A4A21681368994210D013680133402B00D100231649164DC95CC9B229601360154B1B680340082BEBD104E00221124A13688B4313600222114BE5
:401040001A6070BD7C010020CC0F0640140200208C0100204003064011020020D001002008030640C00F06408C0F064088010020840100209001002040020640080206405D
:40108000880F0640800F064002B4714649084900095C49008E4402BC7047C04603B47146490840004900095E49008E4403BC7047014B18687047C046480100200E4B70B5CC
:4010C00000251E000D4CE41AA410A54204D0AB00F35898470135F8E700F05AF8084B00251E00084CE41AA410A54204D0AB00F35898470135F8E770BD9C1100009C110000F3
:401100009C110000A4110000002310B59A4203D0CC5CC4540133F9E710BD03008218934202D019700133FAE77047000080120000760000000000000001330F4003410F40DE
:4011400004430F40E61062048E04D84018808C40C608E608FF0000009311C804113C0101030405060708090A0B0C0E0F101112131415161718191B1C1D1E1F202122232584
:40118000262728292A2B2E2F3031323334354300F8B5C046F8BC08BC9E467047C501000065020000F8B5C046F8BC08BC9E4670479D010000C8110000C800002088000000CD
:4011C000C800000000000000000000002C11000030110000010000000000E02EC05D00001800000000366E01000000000000000000000000000000000000000000000000C0
:4012000000000000000000008E110000000000000000000000000000000000000000000000000000000000000000000000000000000000000000000000000000000000000F
:401240000000000000000000E80000200000000000000000000000000000000000000000000000000000000000000000000000000000000000000000000000000000000066
:40128000000000000000000000000000000000000000000000000000000000000000000000000000000000000000000000000000000000000000000000000000000000002E
:4012C00000000000000000000000000000000000000000000000000000000000000000000000000000000000000000000000000000000000000000000000000000000000EE
:4013000000000000000000000000000000000000000000000000000000000000000000000000000000000000000000000000000000000000000000000000000000000000AD
:40134000000000000000000000000000000000000000000000000000000000000000000000000000000000000000000000000000000000000000000000000000000000006D
:407FC0000000000000000000000000000000000000000000010000000000000000000000000000000000000000000000000000000000000000000000000000000000000080
:0200000490303A
:02000000C12F0E
:0200000490402A
:200000000000000000000000000000000000000000000000000000000000000000000000E0
:0200000490501A
:0C000000000204C81193110104CDD2C20B
:0200000490600A
:0100000001FE
:00000001FF